:100000000C942A000C9434000C9434000C943400AA
:100010000C9434000C9434000C9434000C94340090
:100020000C9434000C9434000C9434000C94340080
:100030000C9434000C9434000C9434000C94340070
:100040000C9434000C9434000C9434000C94340060
:100050000C94340011241FBECFE5D8E0DEBFCDBF25
:100060000E9440000C94BF000C94000060E875E210
:1000700080E090E00E94790008950E94BB000895FE
:100080000E946C000E9436000E943D00833381F084
:1000900028F4813349F0823379F0F6CF8533A1F02B
:1000A00078F08633A9F0F0CF81E30E947500ECCFA1
:1000B00083E30E947500E8CF82E30E947500E4CFDD
:1000C00084E30E947500E0CF85E30E947500DCCFD9
:1000D00086E30E947500D8CF87B3806B87BB8DB154
:1000E00080658DB96B986A9808958FB9779BFECF1C
:1000F00008952AB128612AB920B52F7720BD603C28
:1001000022E172078105910519F48FEC89B922C0AB
:10011000603825E272078105910519F487E689B9EF
:1001200019C061152BE472078105910519F483E369
:1001300089B910C0603820E772078105910519F46C
:1001400082E289B907C06115724C8140910511F4B2
:1001500088E089B980B5806880BD80B58F7B80BD1F
:1001600080B58F7C80BD80B5877F80BD529880B57B
:10017000866080BD08955F9BFECF8CB10895F89492
:02018000FFCFAF
:00000001FF
