S0170000536D6172745F486F6D655F4354524C2E737265638A
S11300000C942A000C9447000C9447000C9447006D
S11300100C9447000C9447000C9447000C94830004
S11300200C9447000C9447000C9447000C94470030
S11300300C9447000C9447000C9447000C94470020
S11300400C9447000C9447000C9447000C94470010
S11300500C94470011241FBECFE5D8E0DEBFCDBF0E
S113006010E0A0E6B0E0EEEBF1E002C005900D92E6
S1130070A236B107D9F720E0A2E6B0E001C01D9294
S1130080A436B207E1F70E9449000C94DD000C94F9
S113009000000E94BC000E9472000E947D00C1E02A
S11300A00E94C100833379F028F4813349F082330C
S11300B069F0F6CF853381F060F0863381F0F0CFBC
S11300C00E947500EDCF0E947700EACF0E9479006C
S11300D0E7CF0E947B00E4CF10926000E1CFC09391
S11300E06000DECFA19A8A9A0895A99A0895A998E2
S11300F00895929A089592980895959A0E94C50039
S11301000E94D60008951F920F920FB60F921124E9
S11301108F939F9380916000813099F48091630064
S1130120882339F0109263008FE694E99BBD8ABD61
S11301301CC081E0809363008FEC97E09BBD8ABD77
S113014014C0811112C080916200882339F010928A
S1130150620087E890E99BBD8ABD07C081E0809377
S1130160620087EB9BE09BBD8ABD9F918F910F90AE
S11301700FBE0F901F901895BE9A6E9A6B986A984E
S11301800895779BFECF8FB108958D9A8FB58064C3
S11301908FBD8FB588608FBD8EB588608EBD89B7E1
S11301A0806189BF8FB780688FBF08958EB5887FBF
S11101B08EBD8EB582608EBD0895F894FFCF8B
S10501BE01003A
S9030000FC
